:100000000C94B9000C94D6000C94D6000C94D60035
:100010000C94D6000C94D6000C94D6000C94D60008
:100020000C94D6000C94D6000C94D6000C94D600F8
:100030000C94D6000C94D6000C94D6000C94D900E5
:100040000C94D6000C94D6000C94D6000C94460266
:100050000C9493020C946B020C94B8020C94D6008E
:100060000C94D6000C94D6000C94D6000C94D600B8
:100070006E616E00696E660000407A10F35A00A04F
:10008000724E18090010A5D4E80000E87648170061
:1000900000E40B54020000CA9A3B000000E1F505A1
:1000A000000080969800000040420F000000A086EB
:1000B00001000000102700000000E803000000001D
:1000C0006400000000000A000000000001000000C1
:1000D00000002C76D888DC674F0823DFC1DFAE59DB
:1000E000E1B1B796E5E3E453C63AE651997696E86E
:1000F000E6C28426EB898C9B62ED407C6FFCEFBCF2
:100100009C9F40F2BAA56FA5F490055A2AF75C931C
:100110006B6CF9676DC11BFCE0E40D47FEF520E652
:10012000B500D0ED902E0300943577050080841E35
:10013000080000204E0A000000C80C333333330F90
:10014000986E12831141EF8D2114893BE65516CF2D
:10015000FEE6DB18D1844B381BF77C1D901DA4BB39
:10016000E424203284725E228100C9F124ECA1E5EE
:100170003D2711241FBECFEFD4E0DEBFCDBF11E07D
:10018000A0E0B1E0E6EAF0E102C005900D92AA3CE1
:10019000B107D9F713E0AAECB1E001C01D92A43D6C
:1001A000B107E1F70E9427010C9451080C9400005C
:1001B00008951F920F920FB60F9211248F939F9361
:1001C0008091CE018823B1F0AD9A8091CC01882333
:1001D00011F18091CC0181508093CC018091CD01AF
:1001E0008823F1F4AF989F918F910F900FBE0F90DD
:1001F0001F9018958091CF018F5F8093CF01803140
:1002000020F385B390E2892785BB1092CF018091BE
:10021000CC018823F1F6AE988091CD01882311F3AB
:100220008091CD0181508093CD019F918F910F904E
:100230000FBE0F901F90189582E08FBD88E490E06C
:1002400095BD84BD8DE18EBD80E889BF08950F9373
:100250001F9384B3806F84BB85B3806F85BB309858
:10026000389A8AB389788ABB8AB389688ABB87B38C
:10027000816187BB8BB3867F8BBBC09AC49ADF9AA0
:10028000899A889810BC97E199B98BB18BB928E10C
:100290002AB936E830BDBB9ABA981CBE90B982B173
:1002A00082B921B93CBF82E08FBD88E490E095BD62
:1002B00084BD8DE18EBD80E889BF789401E017E0B0
:1002C000CA9B0FC01092CE010E940103882379F4CB
:1002D0000E9418038823B1F4C99B1DC0AC9ACA9927
:1002E000F1CF0093CE010E940103882389F30E947D
:1002F000FD020E9404031093CD01AF9A0E941803DF
:10030000882351F30E9414030E94ED021093CC0144
:10031000AE9AC999E3CFAC98D3CF0F931F93CF93E5
:10032000DF93EC0185B3806C85BB8CE30E94ED020A
:100330008881882339F414C089910E94040388813C
:10034000882371F00E9418038823B1F30E941403DC
:100350000E94ED0289910E9404038881882391F70D
:100360008DE00E940403CFE1D3E009E913E003C06C
:10037000209771F02197C8010197F1F70E941803A7
:100380008823B1F30E9414030E94ED02209791F795
:100390008EE30E94ED028AE00E94ED028DE00E9451
:1003A000ED0285B38F7385BBDF91CF911F910F91C4
:1003B000089580E091E00E948D0188E091E00E9424
:1003C0008D018AE191E00E948D0188E491E00E9414
:1003D0008D018EE491E00E948D0188E591E00E94FC
:1003E0008D0186E691E00E948D0188E791E00E94F0
:1003F0008D01089583E891E00E948D0108950F9387
:100400001F93CF93DF93CFECD7E009E913E003C04C
:10041000209771F02197C8010197F1F70E94180306
:100420008823B1F30E9414030E94ED02209791F7F4
:100430008BE891E00E948D0183E991E00E948D019B
:100440008DE991E00E948D018BEA91E00E948D017F
:1004500082EB91E00E948D01CFECD7E009E913E037
:1004600003C0209771F02197C8010197F1F70E940E
:1004700018038823B1F30E9414030E94ED02209711
:1004800091F7DF91CF911F910F9108951F920F92D5
:100490000FB60F9211248F939F93EF93FF93809148
:1004A000D001E091D001F0E09CB1EC52FE4F90837E
:1004B0009091D1018F5F891729F08091D0018F5FD2
:1004C0008093D001FF91EF919F918F910F900FBE7C
:1004D0000F901F9018951F920F920FB60F92112434
:1004E0008F93EF93FF93E091D001F0E0EC52FE4F39
:1004F00080818CB98091D0018F5F8093D001E09191
:10050000D001F0E0EC52FE4F8081882321F4559811
:1005100081E08093C801FF91EF918F910F900FBE02
:100520000F901F9018951F920F920FB60F921124E3
:100530008F939F93EF93FF938091D201E091D2012B
:10054000F0E093B1EC52FD4F90839091D3018F5F17
:10055000891729F08091D2018F5F8093D201FF919A
:10056000EF919F918F910F900FBE0F901F90189554
:100570001F920F920FB60F9211248F93EF93FF9358
:10058000E091D201F0E0EC52FD4F808183B980917F
:10059000D2018F5F8093D201E091D201F0E0EC5262
:1005A000FD4F8081882321F40D9881E08093C9015B
:1005B000FF91EF918F910F900FBE0F901F901895A4
:1005C000F8948091C901813009F008951092C90111
:1005D0001092D2010D9A789408955D9BFECF8CB94C
:1005E0000895FC018081882339F05D9BFECF8CB992
:1005F000818131968823C9F708955F9BFECF8CB126
:1006000008958BB180780895159BFECF83B9089526
:10061000FC018081882339F0159BFECF83B981814D
:1006200031968823C9F70895179BFECF83B10895AB
:1006300082B180780895A1E1B0E0E1E2F3E00C94AA
:10064000A2063C017F876E876A01FC011782168231
:10065000838181FD03C06FEF7FEF6FC39E012F5F2A
:100660003F4F398B288BF3012381EE85FF8523FDD6
:10067000859123FF8191FF87EE87882309F45AC370
:10068000853251F4EE85FF8523FD859123FF81910D
:10069000FF87EE87853229F490E0B3010E94C707F7
:1006A000E2CF982F10E0882499241032B0F49B32C6
:1006B00069F09C3228F4903251F0933271F40BC0FF
:1006C0009D3239F0903349F4116028C012601460F3
:1006D00025C0186023C0106121C017FD2AC0892FD2
:1006E00080538A3078F416FF06C0FAE09F9E902C63
:1006F0001124980E13C03AE0839E802C1124880E9A
:1007000010620CC09E3221F416FD14C3106406C0A2
:100710009C3611F4106802C0983659F4EE85FF85B6
:1007200023FD959123FF9191FF87EE87992309F08F
:10073000BCCF892F8554833020F4812F8061905E57
:1007400007C0892F8556833008F09FC1812F8F7E87
:1007500086FD02C076E0972E6FE3F62EF8229536DE
:1007600019F4F0E4FF2A07C0963619F420E8F22ABB
:1007700002C091109A94F7FE0AC03BE3391518F4B1
:100780005CE3B52E02C0B92CB39427E009C047E062
:10079000491520F4BB2447E0942EF7CF292DBB2424
:1007A000C60104969D878C87F601608171818281E4
:1007B0009381AE014F5F5F4F0B2D0E94D9066C01F4
:1007C0000981202E332400FF04C003FD02C01DE276
:1007D00009C0F1FE02C01BE205C0F2FC02C010E03D
:1007E00001C010E2C1018C709070892BB9F1112306
:1007F00011F483E001C084E0881510F088240AC059
:10080000881AF3FC07C080E290E0B3010E94C7079A
:100810008A94C9F7112329F0812F90E0B3010E9437
:10082000C70723FE03C000E710E00EC004E710E096
:100830000BC0E114F10409F0805290E0B3010E9472
:10084000C7070F5F1F4F05C0EF2CFF24F0E1EF2219
:10085000FF24F8018491882361F714C1F7FE12C0C8
:10086000BC0C24FE04C08A81813309F4BA941B14A1
:100870001CF0BB24B3942DC0F8E0FB1550F538E014
:10088000B32E27C0F6FC25C0892D90E08C159D0560
:100890004CF02CEFC2162FEFD20624F030E8F32AEA
:1008A00001C09A94992049F0E2E0F0E0EC0FFD1FBE
:1008B000E90DF11D80818033A1F3F7FE0AC0B92C48
:1008C000B394892D90E0C816D90614F0992401C07C
:1008D0009C18F7FC03C025E030E009C01C141D047F
:1008E0001CF021E030E003C096012F5F3F4F112341
:1008F00011F02F5F3F4F992029F0892D90E001964C
:10090000280F391F882D90E02817390714F0882404
:1009100001C0821A4F2C5524C20189709070892B16
:1009200039F008C080E290E0B3010E94C7078A94C2
:100930008820C1F7112329F0812F90E0B3010E9494
:10094000C70743FE07C008C080E390E0B3010E94E0
:10095000C7078A948820C1F7F7FE46C08601D7FEF4
:1009600002C000E010E076010894E11CF11CE01ADE
:10097000F10A41E050E04C0F5D1FE40EF51E260128
:100980004B185108892D90E0AA24BB24A81AB90A53
:100990005FEF0F3F150729F48EE290E0B3010E944C
:1009A000C707C016D10634F0401651061CF4F701F3
:1009B000808101C080E3015010400894E11CF11CCB
:1009C0000A151B052CF090E0B3010E94C707E0CF89
:1009D0000C151D0539F49A81963318F4953311F4EA
:1009E00024FE81E390E04BC08A81813309F00F7EC1
:1009F00090E0B3010E94C7079920A1F08EE290E039
:100A0000B3010E94C70712E0E1E0F0E0EC0FFD1F28
:100A1000E10FF11D1F5F808190E0B3010E94C707C5
:100A20009A9491F744FC03C085E690E002C085E407
:100A300090E0B3010E94C707D7FC05C0C114D104E0
:100A400041F404FF06C0D094C194D108D3948DE240
:100A500001C08BE290E0B3010E94C70780E305C0AC
:100A60008F5F26EF3FEFC20ED31E3AE0C316D104CC
:100A7000BCF790E0B3010E94C707C601C096B3015E
:100A80000E94C707CC84DD8452C1933631F093377E
:100A900099F0933509F059C023C0F601808189830C
:100AA0005E010894A11CB11C22E030E0C20ED31EEE
:100AB00021E0E22EF12C12C0F601A080B18016FDDB
:100AC00003C06FEF7FEF02C0692D70E022E030E0DD
:100AD000C20ED31EC5010E94BC077C011F7713C044
:100AE000F601A080B18016FD03C06FEF7FEF02C05A
:100AF000692D70E022E030E0C20ED31EC5010E94D5
:100B0000B1077C01106813FF07C01BC080E290E0B2
:100B1000B3010E94C7078A94882D90E0E816F90671
:100B2000A8F30FC0F50117FD859117FF81915F01B3
:100B300090E0B3010E94C70781108A940894E108ED
:100B4000F108E114F10471F7F2C0943611F099360E
:100B500089F517FF08C0F601208131814281538158
:100B600084E090E00AC0F601808191819C014427D5
:100B700037FD4095542F82E090E0C80ED91E9FE6C5
:100B8000F92EF12257FF09C05095409530952195D7
:100B90003F4F4F4F5F4F90E8F92ACA01B901AE01AC
:100BA0004F5F5F4F2AE030E00E94F307E82EE889AC
:100BB000EE1A41C0953721F41F7E2AE030E01CC0B8
:100BC000197F9F3661F0903720F4983509F0B2C054
:100BD0000FC0903739F0983709F0ACC004C028E056
:100BE00030E00AC0106114FD146020E130E004C060
:100BF00014FD166020E132E017FF08C0F6016081A5
:100C000071818281938144E050E008C0F6018081C7
:100C10009181BC0180E090E042E050E0C40ED51E1E
:100C2000AE014F5F5F4F0E94F307E82E5889E51A27
:100C30008FE7F82EF122F6FE0BC08EEFF822E914B2
:100C400038F4F4FE07C0F2FC05C09FEEF92202C0A2
:100C50001E2D01C0192DF4FE0DC0FE01EE0DF11D7B
:100C60008081803319F4E9EEFE2208C01F5FF2FE96
:100C700005C003C08F2D867809F01F5F0F2DF3FC90
:100C800014C0F0FE0FC0181510F09E2C0BC09E2C47
:100C9000980C911A182D06C080E290E0B3010E94D2
:100CA000C7071F5F1815C0F304C0181510F4811A88
:100CB00001C0882404FF0FC080E390E0B3010E94CC
:100CC000C70702FF1DC001FD03C088E790E00EC00A
:100CD00088E590E00BC0802F867891F001FF02C07C
:100CE0008BE201C080E2F7FC8DE290E0B3010E944C
:100CF000C70706C080E390E0B3010E94C7079A943B
:100D0000E914C0F3EA94E1E0F0E0EC0FFD1FEE0D12
:100D1000F11D808190E0B3010E94C707EE2091F79A
:100D200006C080E290E0B3010E94C7078A94882041
:100D3000C1F799CCF30166817781CB016196E2E13D
:100D40000C94BE062F923F924F925F926F927F92C9
:100D50008F929F92AF92BF92CF92DF92EF92FF92CB
:100D60000F931F93CF93DF93CDB7DEB7CA1BDB0B77
:100D70000FB6F894DEBF0FBECDBF09942A8839881C
:100D800048885F846E847D848C849B84AA84B98423
:100D9000C884DF80EE80FD800C811B81AA81B9812F
:100DA000CE0FD11D0FB6F894DEBF0FBECDBFED0143
:100DB0000895283008F027E03327DA01990F311D14
:100DC00087FD916000966105710539F432602E5FF0
:100DD0003D9330E32A95E1F708959F3F30F0803846
:100DE0007105610509F03C5F3C5F3D93913008F06F
:100DF0008068911DDF93CF931F930F93FF92EF9223
:100E0000192F987F9695E92F96959695E90FFF27CC
:100E1000EE52FF4F99273327EE24FF24A701E70165
:100E200005900894079428F4360FE71EF81E491F12
:100E3000511D660F771F881F991F0694A1F7059013
:100E4000079428F4E70EF81E491F561FC11D770F9F
:100E5000881F991F661F0694A1F70590079428F430
:100E6000F80E491F561FC71FD11D880F991F661FF7
:100E7000771F0694A1F70590079420F4490F561F99
:100E8000C71FD81F990F661F771F881F0694A9F7E1
:100E900084911095177041F0D695C7955795479551
:100EA000F794E7941A95C1F7E8E7F0E06894159095
:100EB000159135916591959105907FE27395E118B3
:100EC000F10A430B560BC90BD009C0F7E10CF11E18
:100ED000431F561FC91FD01D7EF4703311F48A952D
:100EE000E6CFE894015030F0080F0AF4002702170B
:100EF00008F4202F2395022F7A3328F079E37D938D
:100F00002A95E9F710C07D932A9589F6069497955E
:100F10006795379517951794E118F10A430B560B0F
:100F2000C90BD00998F023957E9173957A3308F018
:100F300070E37C932013B8F77E9170617D9330F05D
:100F4000839571E37D9370E32A95E1F71124EF9087
:100F5000FF900F911F91CF91DF91992787FD909579
:100F60000895FC010590615070400110D8F78095FC
:100F700090958E0F9F1F0895FC0161507040019065
:100F80000110D8F7809590958E0F9F1F08950F93AD
:100F90001F93CF93DF938C01EB018B8181FF1BC0EB
:100FA00082FF0DC02E813F818C819D8128173907DA
:100FB00064F4E881F9810193F983E88306C0E88548
:100FC000F985802F0995892B31F48E819F810196B7
:100FD0009F838E8302C00FEF1FEFC801DF91CF9177
:100FE0001F910F910895FA01AA27283051F120315D
:100FF00081F1E8946F936E7F6E5F7F4F8F4F9F4FAD
:10100000AF4FB1E03ED0B4E03CD0670F781F891FEE
:101010009A1FA11D680F791F8A1F911DA11D6A0FBC
:10102000711D811D911DA11D20D009F468943F916F
:101030002AE0269F11243019305D3193DEF6CF016E
:101040000895462F4770405D4193B3E00FD0C9F734
:10105000F6CF462F4F70405D4A3318F0495D31FDA1
:101060004052419302D0A9F7EACFB4E0A6959795F4
:10107000879577956795BA95C9F7009761057105CA
:1010800008959B01AC010A2E069457954795379514
:101090002795BA95C9F7620F731F841F951FA01D6E
:0610A0000895F894FFCF53
:1010A60041542B4353513F0041544430303838317A
:1010B6003030303030303030300041542B435042E5
:1010C600573D312C223030383831303030303030E6
:1010D600303030222C3132392C2247726F756E64D3
:1010E600204D6F64656D22004154443E31004154E9
:1010F6002B434D474C3D340041542B435042523D07
:10110600312C3235350041542B434E4D493D322C5E
:10111600322C302C312C300041542B434D47533D5B
:1011260032350041542B43474D490041542B43521D
:101136003D310041542B435245473D310041542B2C
:10114600434253543D372C302C3100415453303DEB
:10115600310041542B4350494E3D22323232322225
:0A1166000052494E4700C10101018B
:00000001FF
